:020000040000FA
:06080000A1EF05F012005B
:06082A0001005A0B000062
:08083000600000001700000049
:0808380066D886C0E9FFEA6AF8
:10084000E9BEEA68600EE926000EEA22EF508C6EDF
:100850008A9480BA2ED00001876B0A0EE76E871942
:10086000E8AE02D0E73402D0E750875D08E2780EA8
:10087000E66E5CEC05F0E5520001872BEED780BAFE
:1008800018D0862B090EE76E8619E8AE02D08635A1
:1008900003D0E750D880865501E2866B86C0E9FF19
:1008A000EA6AE9BEEA68600EE926000EEA22EF5025
:1008B0008C6E80B826D00001876B0A0EE76E871910
:1008C000E8AE02D0E73402D0E750875D08E2780E48
:1008D000E66E5CEC05F0E5520001872BEED780B8A0
:1008E00010D08607863502E3090E866F86C0E9FFC1
:1008F000EA6AE9BEEA68600EE926000EEA22EF50D5
:100900008C6EA7D712000F0EC112F80E926E936A6A
:10091000946E956A966E806A816A826A836A846A36
:100920008A848A868A888A8A0001866B816B876BB3
:10093000886B826B836B846B856B120086C0E9FFCA
:10094000EA6AE9BEEA68600EE926000EEA22EF5084
:100950008C6E8A94780EE66E93EC05F0E5528A84EC
:1009600000018151EA6A600FE96E000EEA22EF5041
:100970008C6E8A96780EE66E93EC05F0E5528A86C8
:10098000120088C0E9FFEA6AE9BEEA68730EE92648
:10099000000EEA22EF508C6E8C9E8C8E8C9E780E10
:1009A000E66E73EC05F0E5520001830505E1780E73
:1009B000E66E73EC05F0E5520001882B030EE76E3E
:1009C0008819E8AE02D0883503D0E750D880885522
:1009D00001E2886B120088C0E9FFEA6AE9BEEA68B2
:1009E000730EE926000EEA22EF508C6E8C9E8C8EE0
:1009F0008C9E780EE66E73EC05F0E55200018305DF
:100A000005E1780EE66E73EC05F0E552000188070B
:0A0A1000883502E3030E886F120020
:060A1A002A0EF66E080E24
:100A2000F76E000EF86E00010900F5507C6F0900AA
:100A3000F5507D6F03E17C6701D03DD00900F55092
:100A4000776F0900F550786F0900F550796F09004C
:100A50000900F550E96E0900F550EA6E0900090039
:100A60000900F5507A6F0900F5507B6F0900090005
:100A7000F6CF7EF0F7CF7FF0F8CF80F077C0F6FFAB
:100A800078C0F7FF79C0F8FF00017A5302E17B5389
:100A900007E00900F550EE6E7A07F8E27B07F9D718
:100AA0007EC0F6FF7FC0F7FF80C0F8FF00017C0723
:080AB000000E7D5BBFD71200B0
:080AB800FF0EE350036EEF0E88
:100AC00001D0F30EE76EE72E63EF05F00C0E026E19
:100AD000E76AE72E69EF05F0022E68EF05F0032EB6
:060AE00061EF05F01200B9
:0A0AE600FF0EE350036E480E01D02E
:100AF0004C0EE76EE72EFED7E76AE72EFED7032EF1
:060B0000F7D7000012000F
:0A0B0600000EF36E00EE00F0040E86
:100B100001D81200EA6002D0EE6AFCD7F350E96017
:060B20001200EE6AFCD792
:0A0B2600FF0EE350036E1B0E00D01B
:100B300001D0200EE76EE72EFED7032EFAD700D0A5
:020B40001200A1
:0E0B420013EE00F023EE00F0F86A019C0DECBB
:0A0B500005F01CEC04F0FDD71200C4
:060B5A004079243019125D
:100B60000258001008034621060E09477F080402B8
:010B70000183
:00000001FF
