:0411000062EF3EF06C
:107C6E003F065B4F666D7D27806F5F83A7A1848E75
:107C7E009CA39CA301020408080402010A006400EC
:107C8E00120012000F0EC112070E926E000E936EAE
:107C9E00070E946E000E956E070E966E000E806E99
:107CAE00000E816E000E826E000E836E000E846ECC
:107CBE008A808A8212006E0EF66E7C0EF76E000EB1
:107CCE00F86E00EE01F010EE24F00900F5CFEEFF95
:107CDE00E550E150FAE100EE25F00C0EEE6AE806F2
:107CEE00FDE1000EF86E0001A2EF3EF0010E23241E
:107CFE00D96E000E2420DA6EDF508C6E8A908A8246
:107D0E00100E316E940EE82EFED7312EFCD700D019
:107D1E00010E2124D96E000E2220DA6EDF508C6EF9
:107D2E008A808A92100E316E940EE82EFED7312E76
:107D3E00FCD700D0120049EC3EF008D07DEC3EF0AE
:107D4E0084B404D0000E2C6E010E2B6E2B502C1012
:107D5E00D8A413D1F3D7000E246E120E236E000E8C
:107D6E00226E120E216E000E306E000E2F6E23D07C
:107D7E007DEC3EF084B204D0000E206EC80E1F6E55
:107D8E0084A211D0010E206EF40E1F6E0CD07DEC6D
:107D9E003EF084B408D0000E2A6E000E296E000E3E
:107DAE00286E010E276E84A404D029042A10D8B49C
:107DBE00EED72F4A302A1F502F5C3050800A326E79
:107DCE002050800A3258D8B0EDD0D2D7000E226E95
:107DDE00080E216E000E306E000E2F6E3AD0010E80
:107DEE002124D96E000E2220DA6EDF508C6E8A802E
:107DFE008A92200E326E2A0EE82EFED7322EFCD735
:107E0E0084B204D0000E206EC80E1F6E84A219D04C
:107E1E00010E206EF40E1F6E14D0010E2124D96EA9
:107E2E00000E2220DA6EDF508C6E8A808A9284B425
:107E3E0008D0000E2A6E000E296E000E286E010E5E
:107E4E00276E84A404D029042A10D8B4E6D72F4A6A
:107E5E00302A1F502F5C3050800A326E2050800A1C
:107E6E003258D8B09FD0BBD7000E246E130E236E9F
:107E7E00000E226E130E216E000E306E000E2F6E4F
:107E8E0023D07DEC3EF084B204D0000E206EC80EDE
:107E9E001F6E84A211D0010E206EF40E1F6E0CD038
:107EAE007DEC3EF084B408D0000E2A6E000E296ED2
:107EBE00000E286E010E276E84A404D029042A1009
:107ECE00D8B4EED72F4A302A1F502F5C3050800A7C
:107EDE00326E2050800A3258D8B064D0D2D7000EFD
:107EEE00246E080E236E000E306E000E2F6E3AD0EA
:107EFE00010E2324D96E000E2420DA6EDF508C6E14
:107F0E008A908A82200E326E2A0EE82EFED7322EEC
:107F1E00FCD784B204D0000E206EC80E1F6E84A251
:107F2E0019D0010E206EF40E1F6E14D0010E2324F4
:107F3E00D96E000E2420DA6EDF508C6E8A908A8203
:107F4E0084B408D0000E2A6E000E296E000E286E24
:107F5E00010E276E84A404D029042A10D8B4E6D7C3
:107F6E002F4A302A1F502F5C3050800A326E20501C
:107F7E00800A3258D8B016D0BBD72DC032F02EC0E2
:107F8E0033F03350000AD8A40DD03250000AD8B4C2
:107F9E00E2D6010AD8B41AD7030AD8B465D7010AB3
:107FAE00D8B49DD72D4A2E2A2EBE0AD02E5004E1CB
:107FBE00040E2D5CD8A004D0000E2E6E000E2D6E79
:107FCE0084A404D0000E2C6E000E2B6E84B40CD044
:107FDE002B502C10D8A408D027502810D8A404D089
:107FEE00000E2A6E010E296E000E286E000E276EF0
:027FFE00C4D7E6
:020000040020DA
:08000000FFFFFFFFFFFFFFFF00
:020000040030CA
:0E00000000051F1FFF8385FF0FC00FE00F409C
:00000001FF
