:04110000A8EF3FF025
:0C110800C1EC3FF0890E8C6E8A94FCD77D
:107F3700C0F9A4B0999282D880908883C6A1868E12
:107F4700BF0102040808040201370EF66E7F0EF720
:107F57006E000EF86E00EE01F010EE19F00900F554
:107F6700CFEEFFE550E150FAE100EE1AF00E0EEE0B
:107F77006AE806FDE1000184EF08F00F0EC1120761
:107F87000E926E000E936E070E946E000E956E079E
:107F97000E966E000E806E000E816E000E826E00D1
:107FA7000E836E000E846E8A808A828A848A860097
:107FB7000E2B6E090E2A6E000E296E080E286E0013
:107FC7000E276E000E266E000E256E000E246E0024
:107FD7000E236E000E226E000E216E000E206E0024
:107FE7000E1F6E000E1E6E000E1D6E000E1C6E0024
:097FF7000E1B6E000E1A6E120042
:020000040020DA
:08000000FFFFFFFFFFFFFFFF00
:020000040030CA
:0E00000000051F1FFF8385FF0FC00FE00F409C
:00000001FF
