:04110000ABEF3FF022
:0C110800407924300804020101020408B0
:107F560000EE01F0120EEE6AE806FDE1080EF66E7E
:107F6600110EF76E000EF86E00EE13F010EE0CF028
:107F76000900F5CFEEFFE550E150FAE10001C4EF4C
:107F86003FF00F0EC112C00E926E000E936EFC0EE5
:107F9600946E000E956E9668000E806E000E816ED1
:107FA600000E826E000E836E000E846E8A808A82B8
:107FB6008A848A8600D084B084A205D0400E8C6E56
:107FC6008A908A8200D084A084A205D0790E8C6E15
:107FD6008A908A8200D084B084B205D0790E8C6EE5
:107FE6008A908A8200D084A084B2E5D7240E8C6E53
:0A7FF6008A908A82E0D780EF08F03D
:020000040020DA
:08000000FFFFFFFFFFFFFFFF00
:020000040030CA
:0E00000000051F1FFF8385FF0FC00FE00F409C
:00000001FF
