:041100008BEF3FF042
:03110800C0F9A487
:107F1600080EF66E110EF76E000EF86E0900F5CF1C
:107F260009F00900F5CF0AF00900F5CF0BF000EED5
:107F360001F0080EEE6AE806FDE10001A3EF3FF04E
:107F4600C00E926E000E936EFC0E946E000E956E31
:107F5600F80E966E000E806E000E816E000E826E1A
:107F6600000E836E000E846E8A808A82000E086E72
:107F7600000E076E000E066E000E046E000E036EF7
:107F8600000E0C6E000E026E000E016E000E0C6EE0
:107F9600630E0C6401D02AD00850010D090EF3249B
:107FA600D96E000EF420DA6EDF508C6E8A908A82CB
:107FB6004E0E0D6EEB0EE82EFED70D2EFCD700F002
:107FC6000750010D090EF324D96E000EF420DA6E67
:107FD600DF508C6E8A808A924E0E0D6EEB0EE82E66
:107FE600FED70D2EFCD700F00C2AD2D7072A0F0E8B
:0A7FF6000764CCD7000E076EC9D750
:020000040020DA
:08000000FFFFFFFFFFFFFFFF00
:020000040030CA
:0E00000000051F1FFF8385FF0FC00FE00F409C
:00000001FF
