:04110000B1EF3EF01D
:107D4E00FEFDFBF7EFDFFEDFEFF7FBFD01020408A0
:107D5E00080402014E0EF66E7D0EF76E000EF86EE2
:107D6E0000EE01F010EE14F00900F5CFEEFFE55035
:107D7E00E150FAE100EE15F00B0EEE6AE806FDE1B9
:107D8E000001CAEF3EF00F0EC112C00E926E000E31
:107D9E00936EFC0E946E000E956E070E966E000E90
:107DAE00806E000E816E000E826E000E836E000ECF
:107DBE00846E8A808A82000E1F6E000E1E6E000E6A
:107DCE001D6E000E1C6E000E1B6E000E1A6E000E47
:107DDE00196E000E186E000E176E000E1A6E1750EA
:107DEE00D8A432D0010E176E000E186E630E1864F2
:107DFE0001D02AD01F50010D070EF324D96E000EAC
:107E0E00F420DA6EDF508C6E8A908A824E0E206ECF
:107E1E00EB0EE82EFED7202EFCD700F01E50010DE3
:107E2E00010EF324D96E000EF420DA6EDF508C6E44
:107E3E008A808A924E0E206EEB0EE82EFED7202EF2
:107E4E00FCD700F0182AD2D71F50010D070EF324CD
:107E5E00D96E000EF420DA6EDF508C6E8A908A8214
:107E6E004E0E206EEB0EE82EFED7202EFCD700F025
:107E7E001E50010D010EF324D96E000EF420DA6EA1
:107E8E00DF508C6E8A808A924E0E206EEB0EE82E9C
:107E9E00FED7202EFCD700F084B0A1D71F2A050EE6
:107EAE001F6402D0000E1F6E1E2A050E1E6402D025
:107EBE00000E1E6E84A402D0640E166E84B402D020
:107ECE001E0E166E000E186E29D01F50010D070ED5
:107EDE00F324D96E000EF420DA6EDF508C6E8A9089
:107EEE008A824E0E206EEB0EE82EFED7202EFCD789
:107EFE0000F01E50010D010EF324D96E000EF42079
:107F0E00DA6EDF508C6E8A808A924E0E206EEB0EE9
:107F1E00E82EFED7202EFCD700F0182A1650185C3B
:107F2E00D8A0D3D784B05FD0010E1A6E5CD01F508C
:107F3E00010D070EF324D96E000EF420DA6EDF5019
:107F4E008C6E8A908A824E0E206EEB0EE82EFED735
:107F5E00202EFCD700F01E50010D010EF324D96E19
:107F6E00000EF420DA6EDF508C6E8A808A924E0EEE
:107F7E00206EEB0EE82EFED7202EFCD700F084B03C
:107F8E0032D0000E1A6E000E186E630E186401D0F9
:107F9E0085D71F50010D070EF324D96E000EF42065
:107FAE00DA6EDF508C6E8A908A824E0E206EEB0E49
:107FBE00E82EFED7202EFCD700F01E50010D010E2C
:107FCE00F324D96E000EF420DA6EDF508C6E8A80A8
:107FDE008A924E0E206EEB0EE82EFED7202EFCD788
:107FEE0000F0182AD2D784A059D71A04D8A456D78D
:027FFE009ED70C
:020000040020DA
:08000000FFFFFFFFFFFFFFFF00
:020000040030CA
:0E00000000051F1FFF8385FF0FC00FE00F409C
:00000001FF
