:0411000078EF3FF055
:0E110800FEFDFBF7EFDF080402010102040800
:107EF000106A0F6A080EF66E110EF76E000EF86E1D
:107F000000EE01F010EE0EF00900F5CFEEFFE550A7
:107F1000E150FAE100018DEF3FF00F0EC112CE0EDD
:107F2000926E000E936EFC0E946E000E956E070E10
:107F3000966E000E806E000E816E000E826E000E38
:107F4000836E000E846E8A808A828A848A8600D03C
:107F500080A416D00F50010D070EF324D96E000E29
:107F6000F420DA6EDF508C6E8C8E8C8E8C8E9C0E94
:107F7000116ED70EE82EFED7112EFCD700F000D0E0
:107F800080B280B41CD00F50010D070EF324D96EBF
:107F9000000EF420DA6EDF508C6E8C9E8C8E8C9EE0
:107FA0009C0E116ED70EE82EFED7112EFCD700F0D6
:107FB0000F2A030E0F6403D0000E0F6E00D080A2B4
:107FC00080B4C6D71050010D0B0EF324D96E000EED
:107FD000F420DA6EDF508C6E8C9E8C8E8C9E9C0E04
:107FE000116ED70EE82EFED7112EFCD700F0102A06
:107FF000030E1064ADD7000E106EAAD780EF08F004
:020000040020DA
:08000000FFFFFFFFFFFFFFFF00
:020000040030CA
:0E00000000051F1FFF8385FF0FC00FE00F409C
:00000001FF
