:041100002BEF3FF0A2
:107E3B00C0C0F9A4B0999282D880908883C6A186DD
:107E4B008EC78901020408080402013B0EF66E7E00
:107E5B000EF76E000EF86E00EE01F010EE1BF0093F
:107E6B0000F5CFEEFFE550E150FAE1216A206A1FE1
:107E7B006A1E6A1D6A1C6A000144EF3FF00F0EC1B7
:107E8B0012C00E926E000E936E7C0E946E000E95C9
:107E9B006E070E966E000E806E000E816E000E82C7
:107EAB006E000E836E000E846E8A808A82010E2312
:107EBB006E010E226E000E216E000E206E000E1F44
:107ECB006E000E1E6E000E1D6E000E1C6E2CD0234F
:107EDB0050010D010EF324D96E000EF420DA6EDF83
:107EEB00508C6E8A908A82100E246E940EE82EFEB1
:107EFB00D7242EFCD700D02250010D010EF324D92C
:107F0B006E000EF420DA6EDF508C6E8A808A92102F
:107F1B000E246E940EE82EFED7242EFCD700D084B0
:107F2B00B402D0010E1E6E1E50D8A429D0D0D72378
:107F3B0050010D010EF324D96E000EF420DA6EDF22
:107F4B00508C6E8A908A82100E246E940EE82EFE50
:107F5B00D7242EFCD700D02250010D010EF324D9CB
:107F6B006E000EF420DA6EDF508C6E8A808A9210CF
:107F7B000E246E940EE82EFED7242EFCD700D08450
:107F8B00A4D6D7010E1D6E222A100E22642BD0010F
:107F9B000E226E28D02350010D010EF324D96E0052
:107FAB000EF420DA6EDF508C6E8A908A82100E24CB
:107FBB006E940EE82EFED7242EFCD700D022500153
:107FCB000D010EF324D96E000EF420DA6EDF508C07
:107FDB006E8A808A92100E246E940EE82EFED724A1
:107FEB002EFCD700D084A403D01D04D8B4D3D70063
:057FFB000E1D6E99D778
:020000040020DA
:08000000FFFFFFFFFFFFFFFF00
:020000040030CA
:0E00000000051F1FFF8385FF0FC00FE00F409C
:00000001FF
