:020000040000FA
:0608000003EF05F01200F9
:06082A0001001E0A00009F
:080830006A000000090000004D
:08083800D9CFE6FFE1CFD9FFA3
:10084000030EE1260F0EC112C00E926E936AFC0ECB
:10085000946E956AF80E966E806A816A826A836ADF
:10086000846A8A848A868A888A8ADF6A010EDB6AB9
:10087000020EDB6A010EDB6ADBCF03F0300EE76E9F
:100880000318E8AE02D0E73402D0E750035C31E24F
:10089000DFCFE9FFEA6AE9BEEA686A0EE926000EE0
:1008A000EA22EF508C6E8C9E8C8E8C9E020EDBCFDB
:1008B000E9FFEA6AE9BEEA686E0EE926000EEA225E
:1008C000EF508C6E8A94780EE66EE3EC04F0E552FD
:1008D000DF2ADFCF03F0040EE76E0318E8AE02D084
:1008E000E73402D0E750035C01E3DF6A010EDB2A44
:1008F000C3D7020EDB2ADBCF03F0050EE76E031829
:10090000E8AE02D0E73402D0E750035C02E3020E07
:10091000DB6AB0D7030EE15C02E2E16AE552E16E08
:08092000E552E7CFD9FF1200F8
:080928002A0EF66E080EF76EB0
:10093000000EF86E00010900F550656F0900F550D2
:10094000666F03E1656701D03DD00900F550606F27
:100950000900F550616F0900F550626F0900090048
:10096000F550E96E0900F550EA6E0900090009002A
:10097000F550636F0900F550646F09000900F6CF68
:1009800067F0F7CF68F0F8CF69F060C0F6FF61C09C
:10099000F7FF62C0F8FF0001635302E1645307E010
:1009A0000900F550EE6E6307F8E26407F9D767C0F7
:1009B000F6FF68C0F7FF69C0F8FF00016507000E89
:0609C000665BBFD71200C8
:0A09C600FF0EE350026E480E01D050
:1009D0004C0EE76EE72EFED7E76AE72EFED7022E13
:0609E000F7D70000120031
:0A09E600000EF36E00EE00F0040EA8
:1009F00001D81200EA6002D0EE6AFCD7F350E96039
:060A00001200EE6AFCD7B3
:0A0A060013EE00F023EE00F0F86A92
:0E0A1000019C94EC04F01CEC04F0FDD71200E5
:020A1E000804CA
:070A200002017924301912D4
:00000001FF
