:020000040000FA
:0608000018EF05F01200E4
:06082A000100480A000075
:0808300060000000120000004E
:08083800D9CFE6FFE1CFD9FFA3
:10084000E6520F0EC112F80E926E936AFC0E946E71
:10085000956AF80E966E806A816A826A836A846AF3
:100860008A848A868A888A8ADF6ADFCFE9FFEA6A11
:10087000E9BEEA68600EE926000EEA22EF508C6EAF
:100880008A9680B859D0DF6ADFCF04F0110EE76E88
:100890000418E8AE02D0E73402D0E750045C4CE222
:1008A000DFCFE9FFEA6AE9BEEA68600EE926000EDA
:1008B000EA22EF508C6E780EE66EF1EC04F0E55211
:1008C000780EE66EF1EC04F0E552780EE66EF1EC8F
:1008D00004F0E552780EE66EF1EC04F0E552780E85
:1008E000E66EF1EC04F0E552780EE66EF1EC04F001
:1008F000E552780EE66EF1EC04F0E552780EE66E05
:10090000F1EC04F0E552780EE66EF1EC04F0E552FD
:10091000780EE66EF1EC04F0E552DFCF04F00F0E36
:10092000E76E0418E8AE02D0E73402D0E750045C6A
:1009300001E3DF68DF2AA8D798D7E552E552E7CF71
:04094000D9FF1200C9
:0C0944002A0EF66E080EF76E000EF86E1C
:1009500000010900F550776F0900F550786F03E149
:10096000776701D03DD00900F550726F0900F5504E
:10097000736F0900F550746F09000900F550E96EB6
:100980000900F550EA6E090009000900F550756F7D
:100990000900F550766F09000900F6CF79F0F7CF1E
:1009A0007AF0F8CF7BF072C0F6FF73C0F7FF74C027
:1009B000F8FF0001755302E1765307E00900F55096
:1009C000EE6E7507F8E27607F9D779C0F6FF7AC0C0
:1009D000F7FF7BC0F8FF00017707000E785BBFD7F9
:0209E000120003
:0E09E200FF0EE350036EEF0E01D0F30EE76E32
:1009F000E72EF8EF04F00C0E026EE76AE72EFEEF2A
:100A000004F0022EFDEF04F0032EF6EF04F01200C6
:100A1000000EF36E00EE00F0040E01D81200EA6042
:100A200002D0EE6AFCD7F350E9601200EE6AFCD700
:100A300013EE00F023EE00F0F86A019CA2EC04F043
:080A40001CEC04F0FDD71200CC
:080A4800407924301912025814
:0A0A5000001008034621060E772B64
:00000001FF
