:020000040000FA
:060800002FEF05F01200CD
:06082A000100760A000047
:08083000710000000700000048
:080838000F0EC112F80E926EC2
:10084000936AFC0E946E956AF80E966E806A816AC1
:10085000826A836A846A8A848A868A888A8A00018C
:100860006A6B020E6B6F6C6F6E6B706B6F6B805090
:10087000100B05E100016E5102E1010E6E6F805018
:10088000100B06E000016E5103E18A948A9651D85C
:100890008050100B25E100016E0522E123D80001F4
:1008A000705102E16B6B6C6B700503E16B6B010EB9
:1008B0006C6F020E705D03E1010E6B6F6C6B030ECB
:1008C000705D03E1010E6B6F6C6F040E705D06E1ED
:1008D000020E6B6F6C6F6E6B706B02D02AD8DED716
:1008E000C6D712006AC0E9FFEA6AE9BEEA68740E78
:1008F000E926000EEA22EF508C6E8C9E8C8E8C9E28
:10090000780EE66E0FEC05F0E55200016A2B6F2BB6
:10091000040EE76E6A19E8AE02D0E73402D0E75061
:100920006A5D01E36A6B300E6F5D02E1702B6F6BE5
:1009300012006BC0E9FFEA6AE9BEEA68710EE926B7
:10094000000EEA22EF508C6E8A948A86780EE66E4C
:100950000FEC05F0E5526CC0E9FFEA6AE9BEEA680F
:10096000710EE926000EEA22EF508C6E8A968A8478
:10097000780EE66E0FEC05F0E5528A868A84120046
:100980002A0EF66E080EF76E000EF86E00010900D2
:10099000F550656F0900F550666F03E1656701D09A
:1009A0003DD00900F550606F0900F550616F0900F6
:1009B000F550626F09000900F550E96E0900F55025
:1009C000EA6E090009000900F550636F0900F5504F
:1009D000646F09000900F6CF67F0F7CF68F0F8CF31
:1009E00069F060C0F6FF61C0F7FF62C0F8FF000168
:1009F000635302E1645307E00900F550EE6E6307AC
:100A0000F8E26407F9D767C0F6FF68C0F7FF69C06E
:0E0A1000F8FF00016507000E665BBFD71200FD
:020A1E00FF0EC9
:100A2000E350026E480E01D04C0EE76EE72EFED763
:0E0A3000E76AE72EFED7022EF7D7000012006D
:020A3E00000EA8
:100A4000F36E00EE00F0040E01D81200EA6002D04E
:0E0A5000EE6AFCD7F350E9601200EE6AFCD7A4
:020A5E0013EE95
:100A600000F023EE00F0F86A019CC0EC04F01CECEE
:060A700004F0FDD71200A6
:070A760040793F0804020172
:00000001FF
