:020000040000FA
:06080000E0EF04F012001D
:02082A000000CC
:04082C000F0EC112D8
:10083000F80E926E936AFC0E946E956AF80E966EA0
:10084000806A816A826A836A846A8A848A868A88DC
:100850008A8A00016A6B8050100B04E18050200BE3
:1008600001E12FD88050100B04E18050200B01E0F3
:1008700004D880B82CD8EFD71200D9CFE6FFE1CF4B
:10088000D9FFE652100E8C6E8C9E8C8E8C9E780E4C
:10089000E66EC0EC04F0E552DF6ADFCF03F0040E31
:1008A000E76E0318E8AE02D0E73402D0E750035CED
:1008B00003E20DD8DF2AF1D7E552E552E7CFD9FFA1
:1008C0001200100E8C6E8C9E8C8E8C9E12008C6A88
:1008D0008C9E8C8E8C9E780EE66EC0EC04F0E552F9
:0208E000120004
:0E08E2002A0EF66E080EF76E000EF86E00017C
:1008F0000900F550656F0900F550666F03E1656703
:1009000001D03DD00900F550606F0900F550616FCE
:100910000900F550626F09000900F550E96E090001
:10092000F550EA6E090009000900F550636F0900EF
:10093000F550646F09000900F6CF67F0F7CF68F053
:10094000F8CF69F060C0F6FF61C0F7FF62C0F8FF42
:100950000001635302E1645307E00900F550EE6EB5
:100960006307F8E26407F9D767C0F6FF68C0F7FFCE
:1009700069C0F8FF00016507000E665BBFD7120073
:10098000FF0EE350026E480E01D04C0EE76EE72ECC
:10099000FED7E76AE72EFED7022EF7D70000120037
:1009A000000EF36E00EE00F0040E01D81200EA60B3
:1009B00002D0EE6AFCD7F350E9601200EE6AFCD771
:1009C00013EE00F023EE00F0F86A019C71EC04F0E5
:0809D00016EC04F0FDD7120043
:00000001FF
