:020000040000FA
:060800009CEF05F0120060
:06082A000100500B00006C
:08083000600000001A00000046
:080838000F0EC112F80E926EC2
:10084000936AFC0E946E956AF80E966E806A816AC1
:10085000826A836A846A8A848A868A888A8A00018C
:10086000846B856B866B876B886B86C0E9FFEA6A51
:10087000E9BEEA68680EE926000EEA22EF508C6EA7
:100880008A96780EE66E65EC05F0E552780EE66E17
:1008900065EC05F0E552780EE66E65EC05F0E55284
:1008A000780EE66E65EC05F0E552780EE66E65ECC6
:1008B00005F0E552780EE66E65EC05F0E552780E2F
:1008C000E66E65EC05F0E552780EE66E65EC05F037
:1008D000E552780EE66E65EC05F0E552780EE66EB0
:1008E00065EC05F0E5520001862B0A0E865D01E1FC
:1008F000FFD7BBD7120086C0E9FFEA6AE9BEEA6803
:10090000680EE926000EEA22EF508C6E8A948A86E1
:10091000780EE66E7CEC05F0E55287C0E9FFEA6AE6
:10092000E9BEEA68680EE926000EEA22EF508C6EF6
:100930008A848A96780EE66E7CEC05F0E552120009
:100940000001846B300EE76E8419E8AE02D0E73404
:1009500002D0E750845D23E285C0E9FFEA6AE9BE80
:10096000EA68600EE926000EEA22EF508C6E8C9E3B
:100970008C8E8C9E780EE66E7CEC05F0E5520001C4
:10098000852B040EE76E8519E8AE02D0853503D0BD
:10099000E750D880855501E2856B842BD3D71200B0
:1009A0000001846B300EE76E8419E8AE02D0E734A4
:1009B00002D0E750845D23E285C0E9FFEA6AE9BE20
:1009C000EA68640EE926000EEA22EF508C6E8C9ED7
:1009D0008C8E8C9E780EE66E7CEC05F0E552000164
:1009E000852B040EE76E8519E8AE02D0853503D05D
:1009F000E750D880855501E2856B842BD3D7120050
:100A0000200E8C6E8C9E8C8E8C9E780EE66E7CEC0E
:100A100005F0E5521200200E8C6E8C9E8C8E8C9E02
:0C0A2000780EE66E7CEC05F0E55212004A
:040A2C002A0EF66E2A
:100A3000080EF76E000EF86E00010900F5507F6F8A
:100A40000900F550806F03E17F6701D03DD00900B8
:100A5000F5507A6F0900F5507B6F0900F5507C6FF7
:100A600009000900F550E96E0900F550EA6E090029
:100A700009000900F5507D6F0900F5507E6F0900EF
:100A80000900F6CF81F0F7CF82F0F8CF83F07AC07B
:100A9000F6FF7BC0F7FF7CC0F8FF00017D5302E149
:100AA0007E5307E00900F550EE6E7D07F8E27E0701
:100AB000F9D781C0F6FF82C0F7FF83C0F8FF0001BD
:0A0AC0007F07000E805BBFD7120015
:060ACA00FF0EE350036E75
:100AD000EF0E01D0F30EE76EE72E6CEF05F00C0E73
:100AE000026EE76AE72E72EF05F0022E71EF05F055
:080AF000032E6AEF05F012006D
:080AF800FF0EE350036E480EEF
:100B000001D04C0EE76EE72EFED7E76AE72EFED740
:080B1000032EF7D700001200CC
:080B1800000EF36E00EE00F088
:100B2000040E01D81200EA6002D0EE6AFCD7F3503E
:080B3000E9601200EE6AFCD737
:080B380013EE00F023EE00F0C3
:100B4000F86A019C16EC05F01CEC04F0FDD71200CD
:100B500008040201010204084079243019120258E5
:0A0B6000001008032721060E0947C4
:00000001FF
