:020000040000FA
:0608000081EF05F012007B
:06082A0001001A0B0000A2
:08083000600000001B00000045
:080838000F0EC112F80E926EC2
:10084000936AFC0E946E956AF80E966E806A816AC1
:10085000826A836A846A8A848A868A888A8A00018C
:10086000856B866B876B886B896B8A6B8B6B8C6BEC
:100870008D6B00018D5105E160C08CFF8A94010EE3
:100880008D6F80B60CD08A84780EE66E4AEC05F047
:10089000E5528A94780EE66E4AEC05F0E55280B691
:1008A0008A94E7D712000001856B300EE76E851938
:1008B000E8AE02D0E73402D0E750855D21E28CC07B
:1008C000E9FFEA6AE9BEEA68730EE926000EEA2249
:1008D000EF508C6E8C9E8C8E8C9E780EE66E61EC4A
:1008E00005F0E552040E0001E76E8C19E8AE02D067
:1008F000E73402D0E7508C5D01E28C6B852BD5D7B5
:1009000012000001856B300EE76E8519E8AE02D04B
:10091000E73402D0E750855D21E28CC0E9FFEA6A46
:10092000E9BEEA68770EE926000EEA22EF508C6EE7
:100930008C9E8C8E8C9E780EE66E61EC05F0E552F6
:10094000040E0001E76E8C19E8AE02D0E73402D045
:10095000E7508C5D01E28C6B852BD5D7120000012E
:10096000320E856F120088C0E9FFEA6AE9BEEA68C4
:10097000600EE926000EEA22EF508C6E8A948A8679
:10098000780EE66E61EC05F0E55289C0E9FFEA6A8F
:10099000E9BEEA68600EE926000EEA22EF508C6E8E
:1009A0008A848A96780EE66E61EC05F0E5521200B4
:1009B00089C0E9FFEA6AE9BEEA68600EE926000E2E
:1009C000EA22EF508C6E8A960001892B866B0A0E04
:1009D000E76E8619E8AE02D0863503D0E750D8809E
:1009E000865508E2780EE66E4AEC05F0E552000105
:0609F000862BEDD712007A
:0A09F6002A0EF66E080EF76E000ED2
:100A0000F86E00010900F550806F0900F550816F04
:100A100003E1806701D03DD00900F5507B6F0900EC
:100A2000F5507C6F0900F5507D6F09000900F55005
:100A3000E96E0900F550EA6E090009000900F55059
:100A40007E6F0900F5507F6F09000900F6CF82F034
:100A5000F7CF83F0F8CF84F07BC0F6FF7CC0F7FFC0
:100A60007DC0F8FF00017E5302E17F5307E00900DB
:100A7000F550EE6E7E07F8E27F07F9D782C0F6FFE9
:100A800083C0F7FF84C0F8FF00018007000E815B80
:040A9000BFD71200BA
:0C0A9400FF0EE350036EEF0E01D0F30ED6
:100AA000E76EE72E51EF05F00C0E026EE76AE72EB7
:100AB00057EF05F0022E56EF05F0032E4FEF05F02D
:020AC000120022
:0E0AC200FF0EE350036E480E01D04C0EE76E9F
:100AD000E72EFED7E76AE72EFED7032EF7D70000F2
:020AE000120002
:0E0AE200000EF36E00EE00F0040E01D81200BC
:100AF000EA6002D0EE6AFCD7F350E9601200EE6AB9
:020B0000FCD720
:0E0B020013EE00F023EE00F0F86A019CFBEC0D
:0A0B100004F01CEC04F0FDD7120005
:060B1A004079243019129D
:100B20000258001008032721060E1C237F08040228
:050B30000101020408B0
:00000001FF
