:0411000061EF3FF06C
:107EAE00C0F9A4B0999282D880908883C6A1868E9C
:107EBE00FF7638BFAE0EF66E7E0EF76E000EF86EC3
:107ECE0000EE01F010EE14F00900F5CFEEFFE550D4
:107EDE00E150FAE100EE15F00E0EEE6AE806FDE155
:107EEE000001B7EF3FF00F0EC112070E926E000E9B
:107EFE00936E070E946E000E956E070E966E000E24
:107F0E00806E000E816E000E826E000E836E000E6D
:107F1E00846E8A808A82000E266E110E256E000EE9
:107F2E00226E000E216E000E246E000E236E000EC9
:107F3E00206E000E1F6E000E1E6E000E1D6E000EC9
:107F4E001C6E000E1B6E000E1A6E000E196E000EC9
:107F5E00186E000E176E000E166E000E156E1200C5
:107F6E007AEC3FF08A90000E246E000E236E24BE33
:107F7E0006D0E80E235C030E2458D8B017D0000E9E
:107F8E00266E110E256E010E2524D96E000E2620AA
:107F9E00DA6EDF508C6E100E276E940EE82EFED722
:107FAE00272EFCD700D0234A242AE1D7000E246EB8
:107FBE00000E236E24BE06D0E80E235C030E24585A
:107FCE00D8B0D1D7000E266E120E256E010E2524C6
:107FDE00D96E000E2620DA6EDF508C6E100E276ED4
:107FEE00940EE82EFED7272EFCD700D0234A242A43
:027FFE00E1D7C9
:020000040020DA
:08000000FFFFFFFFFFFFFFFF00
:020000040030CA
:0E00000000051F1FFF8385FF0FC00FE00F409C
:00000001FF
