:0411000054EF3FF079
:107E9400C0F9A4B0999282D880908883C6A1868EB6
:107EA400FF89C7BF940EF66E7E0EF76E000EF86E55
:107EB40000EE01F010EE14F00900F5CFEEFFE550EE
:107EC400E150FAE100EE15F0120EEE6AE806FDE16B
:107ED400000192EF3FF0010E2524D96E000E2620FA
:107EE400DA6EDF508C6E8A908A82100E276E940EA2
:107EF400E82EFED7272EFCD700D0010E2324D96EFE
:107F0400000E2420DA6EDF508C6E8A808A92100E66
:107F1400276E940EE82EFED7272EFCD700D0120031
:107F2400C3EC3FF06DEC3FF084B024D0000E1A6E29
:107F3400010E196E1FD0000E226E000E216E22BE9D
:107F440006D0F40E215C010E2258D8B005D06DEC99
:107F54003FF0214A222AF3D7234A242A24BE0AD0F6
:107F6400245004E1100E235CD8A004D0000E246E2B
:107F7400000E236E84A0D6D719041A10D8A4D2D721
:107F8400DAD70F0EC112070E926E000E936E070E13
:107F9400946E000E956E070E966E000E806E000EA7
:107FA400816E000E826E000E836E000E846E8A80D7
:107FB4008A82000E266E000E256E000E246E000EC0
:107FC400236E000E226E000E216E000E206E000E37
:107FD4001F6E000E1E6E000E1D6E000E1C6E000E37
:107FE4001B6E000E1A6E000E196E000E186E000E37
:0C7FF400176E000E166E000E156E1200C7
:020000040020DA
:08000000FFFFFFFFFFFFFFFF00
:020000040030CA
:0E00000000051F1FFF8385FF0FC00FE00F409C
:00000001FF
