:0411000063EF3FF06A
:107EAB00C0F9A4B0999282D880908883C6A1868E9F
:107EBB00C789BF0102040808040201AB0EF66E7EEF
:107ECB000EF76E000EF86E00EE01F010EE1BF009CF
:107EDB0000F5CFEEFFE550E150FAE100EE1CF008A3
:107EEB000EEE6AE806FDE1000EF86E0001A7EF3F0B
:107EFB00F02350010D010EF324D96E000EF420DA9D
:107F0B006EDF508C6E8A908A82100E246E940EE86F
:107F1B002EFED7242EFCD700D02250010D010EF3DC
:107F2B0024D96E000EF420DA6EDF508C6E8A808AB4
:107F3B0092100E246E940EE82EFED7242EFCD70042
:107F4B00D012000F0EC112CE0E926E000E936EFC6D
:107F5B000E946E000E956E070E966E000E806E00E0
:107F6B000E816E000E826E000E836E000E846E8A82
:107F7B00808A82000E236E000E226E000E216E0090
:107F8B000E206E000E1F6E000E1E6E000E1D6E007C
:107F9B000E1C6E7EEC3FF084B002D0010E1D6E8481
:107FAB00A0F8D71D04D8A4F5D7000E1D6E1C2A030C
:107FBB000E1C6412D0000E1C6E0FD0000E09D000E8
:107FCB000E236E010E07D0010E236E020E03D0029C
:107FDB000E236E000E226EDDD71C50000AD8B4EDB6
:107FEB00D7010AD8B4ECD7030AD8B4EDD7010AD815
:057FFB00B4EED7CFD762
:020000040020DA
:08000000FFFFFFFFFFFFFFFF00
:020000040030CA
:0E00000000051F1FFF8385FF0FC00FE00F409C
:00000001FF
