:020000040000FA
:0608000063EF05F0120099
:06082A000100DE0A0000DF
:0808300060000000130000004D
:080838000F0EC112F80E926EC2
:10084000936A946E956A966E806A816A826A836AF8
:10085000846A8A848A868A888A8A00017D6B020E6D
:100860007E6F7F6B806B816B826B836B846B7EC0D2
:10087000E9FFEA6AE9BEEA68600EE926000EEA22AC
:10088000EF508C6E8A967F6B0A0EE76E7F19E8AE8A
:1008900002D0E73402D0E7507F5D08E2780EE66EC2
:1008A0002CEC05F0E55200017F2BEED7020E7E25E1
:1008B0007E6F080EE76E7E19E8AE02D07E3503D05B
:1008C000E750D8807E5501E2FFD77EC0E9FFEA6A93
:1008D000E9BEEA68600EE926000EEA22EF508C6E4F
:1008E000D2D712007DC0E9FFEA6AE9BEEA68600E6D
:1008F000E926000EEA22EF508C6E8A940C0EE66E0A
:1009000043EC05F0E5528A847EC0E9FFEA6AE9BE5D
:10091000EA68600EE926000EEA22EF508C6E8A9695
:100920000C0EE66E43EC05F0E5528A86120080C09C
:10093000E9FFEA6AE9BEEA686B0EE926000EEA22E0
:10094000EF508C6E8C9E8C8E8C9E0001802B780ECE
:10095000E66E43EC05F0E552040E0001E76E8019E7
:10096000E8AE02D0803503D0E750D880805501E250
:10097000806B120080C0E9FFEA6AE9BEEA686F0E88
:10098000E926000EEA22EF508C6E8C9E8C8E8C9E97
:100990000001802B780EE66E43EC05F0E552040E64
:1009A0000001E76E8019E8AE02D0803503D0E75031
:0A09B000D880805501E2806B120030
:0609BA002A0EF66E080E85
:1009C000F76E000EF86E00010900F550786F09000F
:1009D000F550796F03E1786701D03DD00900F550FB
:1009E000736F0900F550746F0900F550756F0900B9
:1009F0000900F550E96E0900F550EA6E090009009A
:100A00000900F550766F0900F550776F090009006D
:100A1000F6CF7AF0F7CF7BF0F8CF7CF073C0F6FF1B
:100A200074C0F7FF75C0F8FF0001765302E17753F9
:100A300007E00900F550EE6E7607F8E27707F9D780
:100A40007AC0F6FF7BC0F7FF7CC0F8FF0001780793
:080A5000000E795BBFD7120014
:080A5800FF0EE350036EEF0EE8
:100A600001D0F30EE76EE72E33EF05F00C0E026EA9
:100A7000E76AE72E39EF05F0022E38EF05F0032E76
:060A800031EF05F0120049
:0A0A8600FF0EE350036E480E01D08E
:100A90004C0EE76EE72EFED7E76AE72EFED7032E51
:060AA000F7D70000120070
:0A0AA600000EF36E00EE00F0040EE7
:100AB00001D81200EA6002D0EE6AFCD7F350E96078
:060AC0001200EE6AFCD7F3
:0A0AC60013EE00F023EE00F0F86AD2
:0E0AD000019CDDEC04F01CEC04F0FDD71200DC
:020ADE0040795D
:100AE00024301912025800107F0804020101020488
:010AF00008FD
:00000001FF
