:020000040000FA
:0608000068EF05F0120094
:06082A000100E80A0000D5
:08083000600000001B00000045
:080838000F0EC112F80E926EC2
:10084000936A946E956A966E806A816A826A836AF8
:10085000846A8A848A868A888A8A0001856B866B84
:10086000876B886B896B8A6B8B6B4AD880AA04D0A4
:100870000001856B866B8B6B8050200B1BE10001A8
:100880008B5118E1856B110E866F876B320EE76E08
:100890008719E8AE02D0E73402D0E750875D08E25E
:1008A0002FD880AA02D00001866B0001872BEED7DB
:1008B000010E8B6F00018B0513E18050200B10E1BE
:1008C0008050100B0DE0010E856F110E866F85D8DC
:1008D000780EE66E48EC05F0E55285D811D810D8B0
:1008E00000018B050BE18050200B08E18050100BBC
:1008F00005E1020E856F100E866F6FD8B6D7120015
:1009000085C0E9FFEA6AE9BEEA68600EE926000EE2
:10091000EA22EF508C6E8A94780EE66E48EC05F071
:10092000E5528A8486C0E9FFEA6AE9BEEA68600E99
:10093000E926000EEA22EF508C6E8A96780EE66E5B
:1009400048EC05F0E5528A86120088C0E9FFEA6AA1
:10095000E9BEEA68730EE926000EEA22EF508C6EBB
:100960008C9E8C8E8C9E0001882B040EE76E88195D
:10097000E8AE02D0E73402D0E750885D01E2886B30
:100980000C0EE66E48EC05F0E552120088C0E9FF57
:10099000EA6AE9BEEA68770EE926000EEA22EF501D
:1009A0008C6E8C9E8C8E8C9E0001882B040EE76EC4
:1009B0008819E8AE02D0E73402D0E750885D01E242
:1009C000886B0C0EE66E48EC05F0E5521200200E26
:1009D0008C6E8C9E8C8E8C9E1200100E8C6E8C9E5B
:1009E0008C8E8C9E1200300E8C6E8C9E8C8E8C9E0B
:0209F0001200F3
:0E09F2002A0EF66E080EF76E000EF86E00016B
:100A00000900F550806F0900F550816F03E18067A0
:100A100001D03DD00900F5507B6F0900F5507C6F87
:100A20000900F5507D6F09000900F550E96E0900D5
:100A3000F550EA6E090009000900F5507E6F0900C3
:100A4000F5507F6F09000900F6CF82F0F7CF83F0F1
:100A5000F8CF84F07BC0F6FF7CC0F7FF7DC0F8FFC5
:100A600000017E5302E17F5307E00900F550EE6E6E
:100A70007E07F8E27F07F9D782C0F6FF83C0F7FF51
:100A800084C0F8FF00018007000E815BBFD7120011
:100A9000FF0EE350026E480E01D04C0EE76EE72EBB
:100AA000FED7E76AE72EFED7022EF7D70000120026
:100AB000000EF36E00EE00F0040E01D81200EA60A2
:100AC00002D0EE6AFCD7F350E9601200EE6AFCD760
:100AD00013EE00F023EE00F0F86A019CF9EC04F04C
:080AE0001CEC04F0FDD712002C
:080AE800407924301912027854
:100AF000001008032721060E09477F0804020101A0
:030B0000020408E4
:00000001FF
