:0411000055EF3FF078
:107E6600C0F9A4B0999282D880908883C6A1868EE4
:107E7600C7890F0EC112070E926E000E936E070E83
:107E8600946E000E956E070E966E000E806E000EB6
:107E9600816E000E826E000E836E000E846E8A80E6
:107EA6008A821200660EF66E7E0EF76E000EF86E71
:107EB60000EE13F010EE12F00900F5CFEEFFE550DC
:107EC600E150FAE100EE01F0120EEE6AE806FDE17D
:107ED600000193EF3FF0130E1124D96E000E12200D
:107EE600DA6EDF508C6E8A908A82100E256E940EA2
:107EF600E82EFED7252EFCD700D0130E0F24D96E00
:107F0600000E1020DA6EDF508C6E8A808A92100E78
:107F1600256E940EE82EFED7252EFCD700D0120033
:107F26003CEC3FF06EEC3FF031D08A80000E0E6ED6
:107F3600000E0D6E0EBE06D00E5010E1640E0D5CE6
:107F4600D8B00CD08A92100E266E940EE82EFED76C
:107F5600262EFCD700D00D4A0E2AECD7000E0E6E48
:107F6600000E0D6E0EBE06D00E5010E1640E0D5CB6
:107F7600D8B00CD08A82100E266E940EE82EFED74C
:107F8600262EFCD700D00D4A0E2AECD784B032D06C
:107F9600CCD78A82000E0E6E000E0D6E0EBE06D077
:107FA6000E5010E1640E0D5CD8B00CD08A90100E05
:107FB600266E940EE82EFED7262EFCD700D00D4A4C
:107FC6000E2AECD7000E0E6E000E0D6E0EBE06D0FB
:107FD6000E5010E1640E0D5CD8B00CD08A80100EE5
:107FE600266E940EE82EFED7262EFCD700D00D4A1C
:0A7FF6000E2AECD784B296D7CCD740
:020000040020DA
:08000000FFFFFFFFFFFFFFFF00
:020000040030CA
:0E00000000051F1FFF8385FF0FC00FE00F409C
:00000001FF
